{
  "_format": "hh-sol-artifact-1",
  "contractName": "Token",
  "sourceName": "contracts/Token.sol",
  "abi": [
    {
      "inputs": [
        {
          "internalType": "string",
          "name": "name",
          "type": "string"
        },
        {
          "internalType": "string",
          "name": "symbol",
          "type": "string"
        },
        {
          "internalType": "uint256",
          "name": "initialSupply",
          "type": "uint256"
        }
      ],
      "stateMutability": "nonpayable",
      "type": "constructor"
    },
    {
      "inputs": [
        {
          "internalType": "address",
          "name": "sender",
          "type": "address"
        },
        {
          "internalType": "string[]",
          "name": "urls",
          "type": "string[]"
        },
        {
          "internalType": "bytes",
          "name": "callData",
          "type": "bytes"
        },
        {
          "internalType": "bytes4",
          "name": "callbackFunction",
          "type": "bytes4"
        },
        {
          "internalType": "bytes",
          "name": "extraData",
          "type": "bytes"
        }
      ],
      "name": "OffchainLookup",
      "type": "error"
    },
    {
      "anonymous": false,
      "inputs": [
        {
          "indexed": true,
          "internalType": "address",
          "name": "owner",
          "type": "address"
        },
        {
          "indexed": true,
          "internalType": "address",
          "name": "spender",
          "type": "address"
        },
        {
          "indexed": false,
          "internalType": "uint256",
          "name": "value",
          "type": "uint256"
        }
      ],
      "name": "Approval",
      "type": "event"
    },
    {
      "anonymous": false,
      "inputs": [
        {
          "indexed": true,
          "internalType": "address",
          "name": "previousOwner",
          "type": "address"
        },
        {
          "indexed": true,
          "internalType": "address",
          "name": "newOwner",
          "type": "address"
        }
      ],
      "name": "OwnershipTransferred",
      "type": "event"
    },
    {
      "anonymous": false,
      "inputs": [
        {
          "indexed": true,
          "internalType": "address",
          "name": "from",
          "type": "address"
        },
        {
          "indexed": true,
          "internalType": "address",
          "name": "to",
          "type": "address"
        },
        {
          "indexed": false,
          "internalType": "uint256",
          "name": "value",
          "type": "uint256"
        }
      ],
      "name": "Transfer",
      "type": "event"
    },
    {
      "inputs": [
        {
          "internalType": "address",
          "name": "addr",
          "type": "address"
        },
        {
          "internalType": "bytes",
          "name": "result",
          "type": "bytes"
        }
      ],
      "name": "_getBalance",
      "outputs": [
        {
          "internalType": "uint256",
          "name": "",
          "type": "uint256"
        }
      ],
      "stateMutability": "view",
      "type": "function"
    },
    {
      "inputs": [
        {
          "internalType": "address",
          "name": "owner",
          "type": "address"
        },
        {
          "internalType": "address",
          "name": "spender",
          "type": "address"
        }
      ],
      "name": "allowance",
      "outputs": [
        {
          "internalType": "uint256",
          "name": "",
          "type": "uint256"
        }
      ],
      "stateMutability": "view",
      "type": "function"
    },
    {
      "inputs": [
        {
          "internalType": "address",
          "name": "spender",
          "type": "address"
        },
        {
          "internalType": "uint256",
          "name": "amount",
          "type": "uint256"
        }
      ],
      "name": "approve",
      "outputs": [
        {
          "internalType": "bool",
          "name": "",
          "type": "bool"
        }
      ],
      "stateMutability": "nonpayable",
      "type": "function"
    },
    {
      "inputs": [
        {
          "internalType": "address",
          "name": "addr",
          "type": "address"
        }
      ],
      "name": "balanceOf",
      "outputs": [
        {
          "internalType": "uint256",
          "name": "balance",
          "type": "uint256"
        }
      ],
      "stateMutability": "view",
      "type": "function"
    },
    {
      "inputs": [
        {
          "internalType": "bytes",
          "name": "result",
          "type": "bytes"
        },
        {
          "internalType": "bytes",
          "name": "extraData",
          "type": "bytes"
        }
      ],
      "name": "balanceOfWithSig",
      "outputs": [
        {
          "internalType": "uint256",
          "name": "",
          "type": "uint256"
        }
      ],
      "stateMutability": "view",
      "type": "function"
    },
    {
      "inputs": [
        {
          "internalType": "bytes",
          "name": "result",
          "type": "bytes"
        },
        {
          "internalType": "bytes",
          "name": "extraData",
          "type": "bytes"
        }
      ],
      "name": "balanceOfWithSigTwo",
      "outputs": [
        {
          "internalType": "uint256",
          "name": "",
          "type": "uint256"
        }
      ],
      "stateMutability": "view",
      "type": "function"
    },
    {
      "inputs": [],
      "name": "decimals",
      "outputs": [
        {
          "internalType": "uint8",
          "name": "",
          "type": "uint8"
        }
      ],
      "stateMutability": "view",
      "type": "function"
    },
    {
      "inputs": [
        {
          "internalType": "address",
          "name": "spender",
          "type": "address"
        },
        {
          "internalType": "uint256",
          "name": "subtractedValue",
          "type": "uint256"
        }
      ],
      "name": "decreaseAllowance",
      "outputs": [
        {
          "internalType": "bool",
          "name": "",
          "type": "bool"
        }
      ],
      "stateMutability": "nonpayable",
      "type": "function"
    },
    {
      "inputs": [],
      "name": "getSigner",
      "outputs": [
        {
          "internalType": "address",
          "name": "",
          "type": "address"
        }
      ],
      "stateMutability": "view",
      "type": "function"
    },
    {
      "inputs": [
        {
          "internalType": "address",
          "name": "spender",
          "type": "address"
        },
        {
          "internalType": "uint256",
          "name": "addedValue",
          "type": "uint256"
        }
      ],
      "name": "increaseAllowance",
      "outputs": [
        {
          "internalType": "bool",
          "name": "",
          "type": "bool"
        }
      ],
      "stateMutability": "nonpayable",
      "type": "function"
    },
    {
      "inputs": [],
      "name": "name",
      "outputs": [
        {
          "internalType": "string",
          "name": "",
          "type": "string"
        }
      ],
      "stateMutability": "view",
      "type": "function"
    },
    {
      "inputs": [],
      "name": "owner",
      "outputs": [
        {
          "internalType": "address",
          "name": "",
          "type": "address"
        }
      ],
      "stateMutability": "view",
      "type": "function"
    },
    {
      "inputs": [],
      "name": "renounceOwnership",
      "outputs": [],
      "stateMutability": "nonpayable",
      "type": "function"
    },
    {
      "inputs": [
        {
          "internalType": "address",
          "name": "signer_",
          "type": "address"
        }
      ],
      "name": "setSigner",
      "outputs": [],
      "stateMutability": "nonpayable",
      "type": "function"
    },
    {
      "inputs": [
        {
          "internalType": "string[]",
          "name": "urls_",
          "type": "string[]"
        }
      ],
      "name": "setUrls",
      "outputs": [],
      "stateMutability": "nonpayable",
      "type": "function"
    },
    {
      "inputs": [],
      "name": "symbol",
      "outputs": [
        {
          "internalType": "string",
          "name": "",
          "type": "string"
        }
      ],
      "stateMutability": "view",
      "type": "function"
    },
    {
      "inputs": [],
      "name": "totalSupply",
      "outputs": [
        {
          "internalType": "uint256",
          "name": "",
          "type": "uint256"
        }
      ],
      "stateMutability": "view",
      "type": "function"
    },
    {
      "inputs": [
        {
          "internalType": "address",
          "name": "recipient",
          "type": "address"
        },
        {
          "internalType": "uint256",
          "name": "amount",
          "type": "uint256"
        }
      ],
      "name": "transfer",
      "outputs": [
        {
          "internalType": "bool",
          "name": "",
          "type": "bool"
        }
      ],
      "stateMutability": "nonpayable",
      "type": "function"
    },
    {
      "inputs": [
        {
          "internalType": "address",
          "name": "sender",
          "type": "address"
        },
        {
          "internalType": "address",
          "name": "recipient",
          "type": "address"
        },
        {
          "internalType": "uint256",
          "name": "amount",
          "type": "uint256"
        }
      ],
      "name": "transferFrom",
      "outputs": [
        {
          "internalType": "bool",
          "name": "",
          "type": "bool"
        }
      ],
      "stateMutability": "nonpayable",
      "type": "function"
    },
    {
      "inputs": [
        {
          "internalType": "address",
          "name": "newOwner",
          "type": "address"
        }
      ],
      "name": "transferOwnership",
      "outputs": [],
      "stateMutability": "nonpayable",
      "type": "function"
    },
    {
      "inputs": [
        {
          "internalType": "bytes",
          "name": "result",
          "type": "bytes"
        },
        {
          "internalType": "bytes",
          "name": "extraData",
          "type": "bytes"
        }
      ],
      "name": "transferWithSig",
      "outputs": [
        {
          "internalType": "bool",
          "name": "",
          "type": "bool"
        }
      ],
      "stateMutability": "nonpayable",
      "type": "function"
    },
    {
      "inputs": [
        {
          "internalType": "uint256",
          "name": "",
          "type": "uint256"
        }
      ],
      "name": "urls",
      "outputs": [
        {
          "internalType": "string",
          "name": "",
          "type": "string"
        }
      ],
      "stateMutability": "view",
      "type": "function"
    }
  ],
  "bytecode": "0x60806040523480156200001157600080fd5b5060405162003eb238038062003eb2833981810160405281019062000037919062000432565b8282816003908051906020019062000051929190620002f9565b5080600490805190602001906200006a929190620002f9565b5050506200008d62000081620000a860201b60201c565b620000b060201b60201c565b6200009f33826200017660201b60201c565b5050506200078b565b600033905090565b6000600560009054906101000a900473ffffffffffffffffffffffffffffffffffffffff16905081600560006101000a81548173ffffffffffffffffffffffffffffffffffffffff021916908373ffffffffffffffffffffffffffffffffffffffff1602179055508173ffffffffffffffffffffffffffffffffffffffff168173ffffffffffffffffffffffffffffffffffffffff167f8be0079c531659141344cd1fd0a4f28419497f9722a3daafe3b4186f6b6457e060405160405180910390a35050565b600073ffffffffffffffffffffffffffffffffffffffff168273ffffffffffffffffffffffffffffffffffffffff161415620001e9576040517f08c379a0000000000000000000000000000000000000000000000000000000008152600401620001e090620004f2565b60405180910390fd5b620001fd60008383620002ef60201b60201c565b8060026000828254620002119190620005a1565b92505081905550806000808473ffffffffffffffffffffffffffffffffffffffff1673ffffffffffffffffffffffffffffffffffffffff1681526020019081526020016000206000828254620002689190620005a1565b925050819055508173ffffffffffffffffffffffffffffffffffffffff16600073ffffffffffffffffffffffffffffffffffffffff167fddf252ad1be2c89b69c2b068fc378daa952ba7f163c4a11628f55a4df523b3ef83604051620002cf919062000514565b60405180910390a3620002eb60008383620002f460201b60201c565b5050565b505050565b505050565b82805462000307906200063e565b90600052602060002090601f0160209004810192826200032b576000855562000377565b82601f106200034657805160ff191683800117855562000377565b8280016001018555821562000377579182015b828111156200037657825182559160200191906001019062000359565b5b5090506200038691906200038a565b5090565b5b80821115620003a55760008160009055506001016200038b565b5090565b6000620003c0620003ba846200055a565b62000531565b905082815260208101848484011115620003d957600080fd5b620003e684828562000608565b509392505050565b600082601f8301126200040057600080fd5b815162000412848260208601620003a9565b91505092915050565b6000815190506200042c8162000771565b92915050565b6000806000606084860312156200044857600080fd5b600084015167ffffffffffffffff8111156200046357600080fd5b6200047186828701620003ee565b935050602084015167ffffffffffffffff8111156200048f57600080fd5b6200049d86828701620003ee565b9250506040620004b0868287016200041b565b9150509250925092565b6000620004c9601f8362000590565b9150620004d68262000748565b602082019050919050565b620004ec81620005fe565b82525050565b600060208201905081810360008301526200050d81620004ba565b9050919050565b60006020820190506200052b6000830184620004e1565b92915050565b60006200053d62000550565b90506200054b828262000674565b919050565b6000604051905090565b600067ffffffffffffffff82111562000578576200057762000708565b5b620005838262000737565b9050602081019050919050565b600082825260208201905092915050565b6000620005ae82620005fe565b9150620005bb83620005fe565b9250827fffffffffffffffffffffffffffffffffffffffffffffffffffffffffffffffff03821115620005f357620005f2620006aa565b5b828201905092915050565b6000819050919050565b60005b83811015620006285780820151818401526020810190506200060b565b8381111562000638576000848401525b50505050565b600060028204905060018216806200065757607f821691505b602082108114156200066e576200066d620006d9565b5b50919050565b6200067f8262000737565b810181811067ffffffffffffffff82111715620006a157620006a062000708565b5b80604052505050565b7f4e487b7100000000000000000000000000000000000000000000000000000000600052601160045260246000fd5b7f4e487b7100000000000000000000000000000000000000000000000000000000600052602260045260246000fd5b7f4e487b7100000000000000000000000000000000000000000000000000000000600052604160045260246000fd5b6000601f19601f8301169050919050565b7f45524332303a206d696e7420746f20746865207a65726f206164647265737300600082015250565b6200077c81620005fe565b81146200078857600080fd5b50565b613717806200079b6000396000f3fe608060405234801561001057600080fd5b50600436106101425760003560e01c806370a08231116100b85780638da5cb5b1161007c5780638da5cb5b146103b157806395d89b41146103cf578063a457c2d7146103ed578063a9059cbb1461041d578063dd62ed3e1461044d578063f2fde38b1461047d57610142565b806370a08231146102f9578063715018a614610329578063796676be146103335780637ac3c02f1461036357806381ec3dc81461038157610142565b8063395093511161010a578063395093511461020157806352d16258146102315780635f52f060146102615780636bc97e3f146102915780636c19e783146102c15780636cc895a9146102dd57610142565b806306fdde0314610147578063095ea7b31461016557806318160ddd1461019557806323b872dd146101b3578063313ce567146101e3575b600080fd5b61014f610499565b60405161015c9190612c5d565b60405180910390f35b61017f600480360381019061017a91906124b0565b61052b565b60405161018c9190612bfd565b60405180910390f35b61019d610549565b6040516101aa9190612e5f565b60405180910390f35b6101cd60048036038101906101c8919061240d565b610553565b6040516101da9190612bfd565b60405180910390f35b6101eb61064b565b6040516101f89190612e7a565b60405180910390f35b61021b600480360381019061021691906124b0565b610654565b6040516102289190612bfd565b60405180910390f35b61024b6004803603810190610246919061245c565b610700565b6040516102589190612e5f565b60405180910390f35b61027b6004803603810190610276919061252d565b61087c565b6040516102889190612e5f565b60405180910390f35b6102ab60048036038101906102a6919061252d565b610949565b6040516102b89190612e5f565b60405180910390f35b6102db60048036038101906102d69190612343565b6109cf565b005b6102f760048036038101906102f291906124ec565b610a8f565b005b610313600480360381019061030e9190612343565b610b25565b6040516103209190612e5f565b60405180910390f35b610331610c6f565b005b61034d600480360381019061034891906125a2565b610cf7565b60405161035a9190612c5d565b60405180910390f35b61036b610da3565b6040516103789190612ae7565b60405180910390f35b61039b6004803603810190610396919061252d565b610dcd565b6040516103a89190612bfd565b60405180910390f35b6103b9610ebd565b6040516103c69190612ae7565b60405180910390f35b6103d7610ee7565b6040516103e49190612c5d565b60405180910390f35b610407600480360381019061040291906124b0565b610f79565b6040516104149190612bfd565b60405180910390f35b610437600480360381019061043291906124b0565b611064565b6040516104449190612bfd565b60405180910390f35b610467600480360381019061046291906123d1565b6111b5565b6040516104749190612e5f565b60405180910390f35b61049760048036038101906104929190612343565b61123c565b005b6060600380546104a890613124565b80601f01602080910402602001604051908101604052809291908181526020018280546104d490613124565b80156105215780601f106104f657610100808354040283529160200191610521565b820191906000526020600020905b81548152906001019060200180831161050457829003601f168201915b5050505050905090565b600061053f610538611334565b848461133c565b6001905092915050565b6000600254905090565b6000610560848484611507565b6000600160008673ffffffffffffffffffffffffffffffffffffffff1673ffffffffffffffffffffffffffffffffffffffff16815260200190815260200160002060006105ab611334565b73ffffffffffffffffffffffffffffffffffffffff1673ffffffffffffffffffffffffffffffffffffffff1681526020019081526020016000205490508281101561062b576040517f08c379a000000000000000000000000000000000000000000000000000000000815260040161062290612d7f565b60405180910390fd5b61063f85610637611334565b85840361133c565b60019150509392505050565b60006012905090565b60006106f6610661611334565b84846001600061066f611334565b73ffffffffffffffffffffffffffffffffffffffff1673ffffffffffffffffffffffffffffffffffffffff16815260200190815260200160002060008873ffffffffffffffffffffffffffffffffffffffff1673ffffffffffffffffffffffffffffffffffffffff168152602001908152602001600020546106f19190612fef565b61133c565b6001905092915050565b60008060008380602001905181019061071991906125cb565b91509150600960008673ffffffffffffffffffffffffffffffffffffffff1673ffffffffffffffffffffffffffffffffffffffff16815260200190815260200160002060009054906101000a900460ff161561077a57600092505050610876565b60006107dd828488604051602001610793929190612abb565b604051602081830303815290604052805190602001206040516020016107b99190612a95565b6040516020818303038152906040528051906020012061178890919063ffffffff16565b90508073ffffffffffffffffffffffffffffffffffffffff16600860009054906101000a900473ffffffffffffffffffffffffffffffffffffffff1673ffffffffffffffffffffffffffffffffffffffff161461086f576040517f08c379a000000000000000000000000000000000000000000000000000000000815260040161086690612dbf565b60405180910390fd5b8293505050505b92915050565b60008085859050505030600663ce93871560e01b336040516024016108a19190612ae7565b604051602081830303815290604052907bffffffffffffffffffffffffffffffffffffffffffffffffffffffff19166020820180517bffffffffffffffffffffffffffffffffffffffffffffffffffffffff8381831617835250505050636bc97e3f60e01b86866040517f556f183000000000000000000000000000000000000000000000000000000000815260040161094096959493929190612b02565b60405180910390fd5b600080838381019061095b919061236c565b90506000610968826117af565b90506109b88288888080601f016020809104026020016040519081016040528093929190818152602001838380828437600081840152601f19601f82011690508083019250505050505050610700565b816109c39190612fef565b92505050949350505050565b6109d7611334565b73ffffffffffffffffffffffffffffffffffffffff166109f5610ebd565b73ffffffffffffffffffffffffffffffffffffffff1614610a4b576040517f08c379a0000000000000000000000000000000000000000000000000000000008152600401610a4290612d9f565b60405180910390fd5b80600860006101000a81548173ffffffffffffffffffffffffffffffffffffffff021916908373ffffffffffffffffffffffffffffffffffffffff16021790555050565b610a97611334565b73ffffffffffffffffffffffffffffffffffffffff16610ab5610ebd565b73ffffffffffffffffffffffffffffffffffffffff1614610b0b576040517f08c379a0000000000000000000000000000000000000000000000000000000008152600401610b0290612d9f565b60405180910390fd5b8060069080519060200190610b21929190611f56565b5050565b6000600960008373ffffffffffffffffffffffffffffffffffffffff1673ffffffffffffffffffffffffffffffffffffffff16815260200190815260200160002060009054906101000a900460ff1615610b8957610b82826117af565b9050610c6a565b30600763ce93871560e01b84604051602401610ba59190612ae7565b604051602081830303815290604052907bffffffffffffffffffffffffffffffffffffffffffffffffffffffff19166020820180517bffffffffffffffffffffffffffffffffffffffffffffffffffffffff8381831617835250505050635f52f06060e01b85604051602001610c1b9190612ae7565b6040516020818303038152906040526040517f556f1830000000000000000000000000000000000000000000000000000000008152600401610c61959493929190612b6c565b60405180910390fd5b919050565b610c77611334565b73ffffffffffffffffffffffffffffffffffffffff16610c95610ebd565b73ffffffffffffffffffffffffffffffffffffffff1614610ceb576040517f08c379a0000000000000000000000000000000000000000000000000000000008152600401610ce290612d9f565b60405180910390fd5b610cf560006117f7565b565b60068181548110610d0757600080fd5b906000526020600020016000915090508054610d2290613124565b80601f0160208091040260200160405190810160405280929190818152602001828054610d4e90613124565b8015610d9b5780601f10610d7057610100808354040283529160200191610d9b565b820191906000526020600020905b815481529060010190602001808311610d7e57829003601f168201915b505050505081565b6000600860009054906101000a900473ffffffffffffffffffffffffffffffffffffffff16905090565b60008060008484810190610de19190612395565b915091506000610e353389898080601f016020809104026020016040519081016040528093929190818152602001838380828437600081840152601f19601f82011690508083019250505050505050610700565b90506000811115610ea3576001600960003373ffffffffffffffffffffffffffffffffffffffff1673ffffffffffffffffffffffffffffffffffffffff16815260200190815260200160002060006101000a81548160ff021916908315150217905550610ea233826118bd565b5b610eae338484611507565b60019350505050949350505050565b6000600560009054906101000a900473ffffffffffffffffffffffffffffffffffffffff16905090565b606060048054610ef690613124565b80601f0160208091040260200160405190810160405280929190818152602001828054610f2290613124565b8015610f6f5780601f10610f4457610100808354040283529160200191610f6f565b820191906000526020600020905b815481529060010190602001808311610f5257829003601f168201915b5050505050905090565b60008060016000610f88611334565b73ffffffffffffffffffffffffffffffffffffffff1673ffffffffffffffffffffffffffffffffffffffff16815260200190815260200160002060008573ffffffffffffffffffffffffffffffffffffffff1673ffffffffffffffffffffffffffffffffffffffff16815260200190815260200160002054905082811015611045576040517f08c379a000000000000000000000000000000000000000000000000000000000815260040161103c90612e1f565b60405180910390fd5b611059611050611334565b8585840361133c565b600191505092915050565b6000600960003373ffffffffffffffffffffffffffffffffffffffff1673ffffffffffffffffffffffffffffffffffffffff16815260200190815260200160002060009054906101000a900460ff16156110c8576110c3338484611507565b6111ab565b30600663ce93871560e01b336040516024016110e49190612ae7565b604051602081830303815290604052907bffffffffffffffffffffffffffffffffffffffffffffffffffffffff19166020820180517bffffffffffffffffffffffffffffffffffffffffffffffffffffffff83818316178352505050506381ec3dc860e01b868660405160200161115c929190612bd4565b6040516020818303038152906040526040517f556f18300000000000000000000000000000000000000000000000000000000081526004016111a2959493929190612b6c565b60405180910390fd5b6001905092915050565b6000600160008473ffffffffffffffffffffffffffffffffffffffff1673ffffffffffffffffffffffffffffffffffffffff16815260200190815260200160002060008373ffffffffffffffffffffffffffffffffffffffff1673ffffffffffffffffffffffffffffffffffffffff16815260200190815260200160002054905092915050565b611244611334565b73ffffffffffffffffffffffffffffffffffffffff16611262610ebd565b73ffffffffffffffffffffffffffffffffffffffff16146112b8576040517f08c379a00000000000000000000000000000000000000000000000000000000081526004016112af90612d9f565b60405180910390fd5b600073ffffffffffffffffffffffffffffffffffffffff168173ffffffffffffffffffffffffffffffffffffffff161415611328576040517f08c379a000000000000000000000000000000000000000000000000000000000815260040161131f90612cdf565b60405180910390fd5b611331816117f7565b50565b600033905090565b600073ffffffffffffffffffffffffffffffffffffffff168373ffffffffffffffffffffffffffffffffffffffff1614156113ac576040517f08c379a00000000000000000000000000000000000000000000000000000000081526004016113a390612dff565b60405180910390fd5b600073ffffffffffffffffffffffffffffffffffffffff168273ffffffffffffffffffffffffffffffffffffffff16141561141c576040517f08c379a000000000000000000000000000000000000000000000000000000000815260040161141390612cff565b60405180910390fd5b80600160008573ffffffffffffffffffffffffffffffffffffffff1673ffffffffffffffffffffffffffffffffffffffff16815260200190815260200160002060008473ffffffffffffffffffffffffffffffffffffffff1673ffffffffffffffffffffffffffffffffffffffff168152602001908152602001600020819055508173ffffffffffffffffffffffffffffffffffffffff168373ffffffffffffffffffffffffffffffffffffffff167f8c5be1e5ebec7d5bd14f71427d1e84f3dd0314c0f7b2291e5b200ac8c7c3b925836040516114fa9190612e5f565b60405180910390a3505050565b600073ffffffffffffffffffffffffffffffffffffffff168373ffffffffffffffffffffffffffffffffffffffff161415611577576040517f08c379a000000000000000000000000000000000000000000000000000000000815260040161156e90612ddf565b60405180910390fd5b600073ffffffffffffffffffffffffffffffffffffffff168273ffffffffffffffffffffffffffffffffffffffff1614156115e7576040517f08c379a00000000000000000000000000000000000000000000000000000000081526004016115de90612c9f565b60405180910390fd5b6115f2838383611a1d565b60008060008573ffffffffffffffffffffffffffffffffffffffff1673ffffffffffffffffffffffffffffffffffffffff16815260200190815260200160002054905081811015611678576040517f08c379a000000000000000000000000000000000000000000000000000000000815260040161166f90612d1f565b60405180910390fd5b8181036000808673ffffffffffffffffffffffffffffffffffffffff1673ffffffffffffffffffffffffffffffffffffffff16815260200190815260200160002081905550816000808573ffffffffffffffffffffffffffffffffffffffff1673ffffffffffffffffffffffffffffffffffffffff168152602001908152602001600020600082825461170b9190612fef565b925050819055508273ffffffffffffffffffffffffffffffffffffffff168473ffffffffffffffffffffffffffffffffffffffff167fddf252ad1be2c89b69c2b068fc378daa952ba7f163c4a11628f55a4df523b3ef8460405161176f9190612e5f565b60405180910390a3611782848484611a22565b50505050565b60008060006117978585611a27565b915091506117a481611aaa565b819250505092915050565b60008060008373ffffffffffffffffffffffffffffffffffffffff1673ffffffffffffffffffffffffffffffffffffffff168152602001908152602001600020549050919050565b6000600560009054906101000a900473ffffffffffffffffffffffffffffffffffffffff16905081600560006101000a81548173ffffffffffffffffffffffffffffffffffffffff021916908373ffffffffffffffffffffffffffffffffffffffff1602179055508173ffffffffffffffffffffffffffffffffffffffff168173ffffffffffffffffffffffffffffffffffffffff167f8be0079c531659141344cd1fd0a4f28419497f9722a3daafe3b4186f6b6457e060405160405180910390a35050565b600073ffffffffffffffffffffffffffffffffffffffff168273ffffffffffffffffffffffffffffffffffffffff16141561192d576040517f08c379a000000000000000000000000000000000000000000000000000000000815260040161192490612e3f565b60405180910390fd5b61193960008383611a1d565b806002600082825461194b9190612fef565b92505081905550806000808473ffffffffffffffffffffffffffffffffffffffff1673ffffffffffffffffffffffffffffffffffffffff16815260200190815260200160002060008282546119a09190612fef565b925050819055508173ffffffffffffffffffffffffffffffffffffffff16600073ffffffffffffffffffffffffffffffffffffffff167fddf252ad1be2c89b69c2b068fc378daa952ba7f163c4a11628f55a4df523b3ef83604051611a059190612e5f565b60405180910390a3611a1960008383611a22565b5050565b505050565b505050565b600080604183511415611a695760008060006020860151925060408601519150606086015160001a9050611a5d87828585611dfb565b94509450505050611aa3565b604083511415611a9a576000806020850151915060408501519050611a8f868383611f08565b935093505050611aa3565b60006002915091505b9250929050565b60006004811115611ae4577f4e487b7100000000000000000000000000000000000000000000000000000000600052602160045260246000fd5b816004811115611b1d577f4e487b7100000000000000000000000000000000000000000000000000000000600052602160045260246000fd5b1415611b2857611df8565b60016004811115611b62577f4e487b7100000000000000000000000000000000000000000000000000000000600052602160045260246000fd5b816004811115611b9b577f4e487b7100000000000000000000000000000000000000000000000000000000600052602160045260246000fd5b1415611bdc576040517f08c379a0000000000000000000000000000000000000000000000000000000008152600401611bd390612c7f565b60405180910390fd5b60026004811115611c16577f4e487b7100000000000000000000000000000000000000000000000000000000600052602160045260246000fd5b816004811115611c4f577f4e487b7100000000000000000000000000000000000000000000000000000000600052602160045260246000fd5b1415611c90576040517f08c379a0000000000000000000000000000000000000000000000000000000008152600401611c8790612cbf565b60405180910390fd5b60036004811115611cca577f4e487b7100000000000000000000000000000000000000000000000000000000600052602160045260246000fd5b816004811115611d03577f4e487b7100000000000000000000000000000000000000000000000000000000600052602160045260246000fd5b1415611d44576040517f08c379a0000000000000000000000000000000000000000000000000000000008152600401611d3b90612d3f565b60405180910390fd5b600480811115611d7d577f4e487b7100000000000000000000000000000000000000000000000000000000600052602160045260246000fd5b816004811115611db6577f4e487b7100000000000000000000000000000000000000000000000000000000600052602160045260246000fd5b1415611df7576040517f08c379a0000000000000000000000000000000000000000000000000000000008152600401611dee90612d5f565b60405180910390fd5b5b50565b6000807f7fffffffffffffffffffffffffffffff5d576e7357a4501ddfe92f46681b20a08360001c1115611e36576000600391509150611eff565b601b8560ff1614158015611e4e5750601c8560ff1614155b15611e60576000600491509150611eff565b600060018787878760405160008152602001604052604051611e859493929190612c18565b6020604051602081039080840390855afa158015611ea7573d6000803e3d6000fd5b505050602060405103519050600073ffffffffffffffffffffffffffffffffffffffff168173ffffffffffffffffffffffffffffffffffffffff161415611ef657600060019250925050611eff565b80600092509250505b94509492505050565b6000806000807f7fffffffffffffffffffffffffffffffffffffffffffffffffffffffffffffff85169150601b8560ff1c019050611f4887828885611dfb565b935093505050935093915050565b828054828255906000526020600020908101928215611fa5579160200282015b82811115611fa4578251829080519060200190611f94929190611fb6565b5091602001919060010190611f76565b5b509050611fb2919061203c565b5090565b828054611fc290613124565b90600052602060002090601f016020900481019282611fe4576000855561202b565b82601f10611ffd57805160ff191683800117855561202b565b8280016001018555821561202b579182015b8281111561202a57825182559160200191906001019061200f565b5b5090506120389190612060565b5090565b5b8082111561205c5760008181612053919061207d565b5060010161203d565b5090565b5b80821115612079576000816000905550600101612061565b5090565b50805461208990613124565b6000825580601f1061209b57506120ba565b601f0160209004906000526020600020908101906120b99190612060565b5b50565b60006120d06120cb84612eba565b612e95565b905080838252602082019050828560208602820111156120ef57600080fd5b60005b8581101561213957813567ffffffffffffffff81111561211157600080fd5b80860161211e89826122ef565b855260208501945060208401935050506001810190506120f2565b5050509392505050565b600061215661215184612ee6565b612e95565b90508281526020810184848401111561216e57600080fd5b6121798482856130e2565b509392505050565b600061219461218f84612ee6565b612e95565b9050828152602081018484840111156121ac57600080fd5b6121b78482856130f1565b509392505050565b60006121d26121cd84612f17565b612e95565b9050828152602081018484840111156121ea57600080fd5b6121f58482856130e2565b509392505050565b60008135905061220c8161369c565b92915050565b600081359050612221816136b3565b92915050565b600082601f83011261223857600080fd5b81356122488482602086016120bd565b91505092915050565b60008083601f84011261226357600080fd5b8235905067ffffffffffffffff81111561227c57600080fd5b60208301915083600182028301111561229457600080fd5b9250929050565b600082601f8301126122ac57600080fd5b81356122bc848260208601612143565b91505092915050565b600082601f8301126122d657600080fd5b81516122e6848260208601612181565b91505092915050565b600082601f83011261230057600080fd5b81356123108482602086016121bf565b91505092915050565b600081359050612328816136ca565b92915050565b60008151905061233d816136ca565b92915050565b60006020828403121561235557600080fd5b6000612363848285016121fd565b91505092915050565b60006020828403121561237e57600080fd5b600061238c84828501612212565b91505092915050565b600080604083850312156123a857600080fd5b60006123b685828601612212565b92505060206123c785828601612319565b9150509250929050565b600080604083850312156123e457600080fd5b60006123f2858286016121fd565b9250506020612403858286016121fd565b9150509250929050565b60008060006060848603121561242257600080fd5b6000612430868287016121fd565b9350506020612441868287016121fd565b925050604061245286828701612319565b9150509250925092565b6000806040838503121561246f57600080fd5b600061247d858286016121fd565b925050602083013567ffffffffffffffff81111561249a57600080fd5b6124a68582860161229b565b9150509250929050565b600080604083850312156124c357600080fd5b60006124d1858286016121fd565b92505060206124e285828601612319565b9150509250929050565b6000602082840312156124fe57600080fd5b600082013567ffffffffffffffff81111561251857600080fd5b61252484828501612227565b91505092915050565b6000806000806040858703121561254357600080fd5b600085013567ffffffffffffffff81111561255d57600080fd5b61256987828801612251565b9450945050602085013567ffffffffffffffff81111561258857600080fd5b61259487828801612251565b925092505092959194509250565b6000602082840312156125b457600080fd5b60006125c284828501612319565b91505092915050565b600080604083850312156125de57600080fd5b60006125ec8582860161232e565b925050602083015167ffffffffffffffff81111561260957600080fd5b612615858286016122c5565b9150509250929050565b600061262b83836127b0565b905092915050565b61263c81613045565b82525050565b61265361264e82613045565b613187565b82525050565b600061266482612f72565b61266e8185612fa0565b93508360208202850161268085612f48565b8060005b858110156126bb5784840389528161269c858261261f565b94506126a783612f93565b925060208a01995050600181019050612684565b50829750879550505050505092915050565b6126d681613069565b82525050565b6126e581613075565b82525050565b6126fc6126f782613075565b613199565b82525050565b61270b8161307f565b82525050565b600061271d8385612fb1565b935061272a8385846130e2565b6127338361324c565b840190509392505050565b600061274982612f7d565b6127538185612fb1565b93506127638185602086016130f1565b61276c8161324c565b840191505092915050565b600061278282612f88565b61278c8185612fd3565b935061279c8185602086016130f1565b6127a58161324c565b840191505092915050565b600081546127bd81613124565b6127c78186612fc2565b945060018216600081146127e257600181146127f457612827565b60ff1983168652602086019350612827565b6127fd85612f5d565b60005b8381101561281f57815481890152600182019150602081019050612800565b808801955050505b50505092915050565b600061283d601883612fd3565b91506128488261326a565b602082019050919050565b6000612860602383612fd3565b915061286b82613293565b604082019050919050565b6000612883601f83612fd3565b915061288e826132e2565b602082019050919050565b60006128a6601c83612fe4565b91506128b18261330b565b601c82019050919050565b60006128c9602683612fd3565b91506128d482613334565b604082019050919050565b60006128ec602283612fd3565b91506128f782613383565b604082019050919050565b600061290f602683612fd3565b915061291a826133d2565b604082019050919050565b6000612932602283612fd3565b915061293d82613421565b604082019050919050565b6000612955602283612fd3565b915061296082613470565b604082019050919050565b6000612978602883612fd3565b9150612983826134bf565b604082019050919050565b600061299b602083612fd3565b91506129a68261350e565b602082019050919050565b60006129be602583612fd3565b91506129c982613537565b604082019050919050565b60006129e1602583612fd3565b91506129ec82613586565b604082019050919050565b6000612a04602483612fd3565b9150612a0f826135d5565b604082019050919050565b6000612a27602583612fd3565b9150612a3282613624565b604082019050919050565b6000612a4a601f83612fd3565b9150612a5582613673565b602082019050919050565b612a69816130cb565b82525050565b612a80612a7b826130cb565b6131b5565b82525050565b612a8f816130d5565b82525050565b6000612aa082612899565b9150612aac82846126eb565b60208201915081905092915050565b6000612ac78285612a6f565b602082019150612ad78284612642565b6014820191508190509392505050565b6000602082019050612afc6000830184612633565b92915050565b600060a082019050612b176000830189612633565b8181036020830152612b298188612659565b90508181036040830152612b3d818761273e565b9050612b4c6060830186612702565b8181036080830152612b5f818486612711565b9050979650505050505050565b600060a082019050612b816000830188612633565b8181036020830152612b938187612659565b90508181036040830152612ba7818661273e565b9050612bb66060830185612702565b8181036080830152612bc8818461273e565b90509695505050505050565b6000604082019050612be96000830185612633565b612bf66020830184612a60565b9392505050565b6000602082019050612c1260008301846126cd565b92915050565b6000608082019050612c2d60008301876126dc565b612c3a6020830186612a86565b612c4760408301856126dc565b612c5460608301846126dc565b95945050505050565b60006020820190508181036000830152612c778184612777565b905092915050565b60006020820190508181036000830152612c9881612830565b9050919050565b60006020820190508181036000830152612cb881612853565b9050919050565b60006020820190508181036000830152612cd881612876565b9050919050565b60006020820190508181036000830152612cf8816128bc565b9050919050565b60006020820190508181036000830152612d18816128df565b9050919050565b60006020820190508181036000830152612d3881612902565b9050919050565b60006020820190508181036000830152612d5881612925565b9050919050565b60006020820190508181036000830152612d7881612948565b9050919050565b60006020820190508181036000830152612d988161296b565b9050919050565b60006020820190508181036000830152612db88161298e565b9050919050565b60006020820190508181036000830152612dd8816129b1565b9050919050565b60006020820190508181036000830152612df8816129d4565b9050919050565b60006020820190508181036000830152612e18816129f7565b9050919050565b60006020820190508181036000830152612e3881612a1a565b9050919050565b60006020820190508181036000830152612e5881612a3d565b9050919050565b6000602082019050612e746000830184612a60565b92915050565b6000602082019050612e8f6000830184612a86565b92915050565b6000612e9f612eb0565b9050612eab8282613156565b919050565b6000604051905090565b600067ffffffffffffffff821115612ed557612ed461321d565b5b602082029050602081019050919050565b600067ffffffffffffffff821115612f0157612f0061321d565b5b612f0a8261324c565b9050602081019050919050565b600067ffffffffffffffff821115612f3257612f3161321d565b5b612f3b8261324c565b9050602081019050919050565b60008190508160005260206000209050919050565b60008190508160005260206000209050919050565b600081549050919050565b600081519050919050565b600081519050919050565b6000600182019050919050565b600082825260208201905092915050565b600082825260208201905092915050565b600082825260208201905092915050565b600082825260208201905092915050565b600081905092915050565b6000612ffa826130cb565b9150613005836130cb565b9250827fffffffffffffffffffffffffffffffffffffffffffffffffffffffffffffffff0382111561303a576130396131bf565b5b828201905092915050565b6000613050826130ab565b9050919050565b6000613062826130ab565b9050919050565b60008115159050919050565b6000819050919050565b60007fffffffff0000000000000000000000000000000000000000000000000000000082169050919050565b600073ffffffffffffffffffffffffffffffffffffffff82169050919050565b6000819050919050565b600060ff82169050919050565b82818337600083830152505050565b60005b8381101561310f5780820151818401526020810190506130f4565b8381111561311e576000848401525b50505050565b6000600282049050600182168061313c57607f821691505b602082108114156131505761314f6131ee565b5b50919050565b61315f8261324c565b810181811067ffffffffffffffff8211171561317e5761317d61321d565b5b80604052505050565b6000613192826131a3565b9050919050565b6000819050919050565b60006131ae8261325d565b9050919050565b6000819050919050565b7f4e487b7100000000000000000000000000000000000000000000000000000000600052601160045260246000fd5b7f4e487b7100000000000000000000000000000000000000000000000000000000600052602260045260246000fd5b7f4e487b7100000000000000000000000000000000000000000000000000000000600052604160045260246000fd5b6000601f19601f8301169050919050565b60008160601b9050919050565b7f45434453413a20696e76616c6964207369676e61747572650000000000000000600082015250565b7f45524332303a207472616e7366657220746f20746865207a65726f206164647260008201527f6573730000000000000000000000000000000000000000000000000000000000602082015250565b7f45434453413a20696e76616c6964207369676e6174757265206c656e67746800600082015250565b7f19457468657265756d205369676e6564204d6573736167653a0a333200000000600082015250565b7f4f776e61626c653a206e6577206f776e657220697320746865207a65726f206160008201527f6464726573730000000000000000000000000000000000000000000000000000602082015250565b7f45524332303a20617070726f766520746f20746865207a65726f20616464726560008201527f7373000000000000000000000000000000000000000000000000000000000000602082015250565b7f45524332303a207472616e7366657220616d6f756e742065786365656473206260008201527f616c616e63650000000000000000000000000000000000000000000000000000602082015250565b7f45434453413a20696e76616c6964207369676e6174757265202773272076616c60008201527f7565000000000000000000000000000000000000000000000000000000000000602082015250565b7f45434453413a20696e76616c6964207369676e6174757265202776272076616c60008201527f7565000000000000000000000000000000000000000000000000000000000000602082015250565b7f45524332303a207472616e7366657220616d6f756e742065786365656473206160008201527f6c6c6f77616e6365000000000000000000000000000000000000000000000000602082015250565b7f4f776e61626c653a2063616c6c6572206973206e6f7420746865206f776e6572600082015250565b7f5369676e6572206973206e6f7420746865207369676e6572206f66207468652060008201527f746f6b656e000000000000000000000000000000000000000000000000000000602082015250565b7f45524332303a207472616e736665722066726f6d20746865207a65726f20616460008201527f6472657373000000000000000000000000000000000000000000000000000000602082015250565b7f45524332303a20617070726f76652066726f6d20746865207a65726f2061646460008201527f7265737300000000000000000000000000000000000000000000000000000000602082015250565b7f45524332303a2064656372656173656420616c6c6f77616e63652062656c6f7760008201527f207a65726f000000000000000000000000000000000000000000000000000000602082015250565b7f45524332303a206d696e7420746f20746865207a65726f206164647265737300600082015250565b6136a581613045565b81146136b057600080fd5b50565b6136bc81613057565b81146136c757600080fd5b50565b6136d3816130cb565b81146136de57600080fd5b5056fea2646970667358221220528e2911b77217b5765e963e85b00d24058418a3e906e5b4d460b7d6ba3dca4964736f6c63430008040033",
  "linkReferences": {},
  "deployedLinkReferences": {}
}