{
  "_format": "hh-sol-artifact-1",
  "contractName": "WildcardResolver",
  "sourceName": "contracts/resolvers/WildcardResolver.sol",
  "abi": [
    {
      "inputs": [
        {
          "internalType": "contract ENS",
          "name": "_ens",
          "type": "address"
        }
      ],
      "stateMutability": "nonpayable",
      "type": "constructor"
    },
    {
      "anonymous": false,
      "inputs": [
        {
          "indexed": true,
          "internalType": "bytes32",
          "name": "node",
          "type": "bytes32"
        },
        {
          "indexed": true,
          "internalType": "uint256",
          "name": "contentType",
          "type": "uint256"
        }
      ],
      "name": "ABIChanged",
      "type": "event"
    },
    {
      "anonymous": false,
      "inputs": [
        {
          "indexed": true,
          "internalType": "bytes32",
          "name": "node",
          "type": "bytes32"
        },
        {
          "indexed": false,
          "internalType": "address",
          "name": "a",
          "type": "address"
        }
      ],
      "name": "AddrChanged",
      "type": "event"
    },
    {
      "anonymous": false,
      "inputs": [
        {
          "indexed": true,
          "internalType": "bytes32",
          "name": "node",
          "type": "bytes32"
        },
        {
          "indexed": false,
          "internalType": "uint256",
          "name": "coinType",
          "type": "uint256"
        },
        {
          "indexed": false,
          "internalType": "bytes",
          "name": "newAddress",
          "type": "bytes"
        }
      ],
      "name": "AddressChanged",
      "type": "event"
    },
    {
      "anonymous": false,
      "inputs": [
        {
          "indexed": true,
          "internalType": "address",
          "name": "owner",
          "type": "address"
        },
        {
          "indexed": true,
          "internalType": "address",
          "name": "operator",
          "type": "address"
        },
        {
          "indexed": false,
          "internalType": "bool",
          "name": "approved",
          "type": "bool"
        }
      ],
      "name": "ApprovalForAll",
      "type": "event"
    },
    {
      "anonymous": false,
      "inputs": [
        {
          "indexed": true,
          "internalType": "bytes32",
          "name": "node",
          "type": "bytes32"
        },
        {
          "indexed": false,
          "internalType": "bytes",
          "name": "hash",
          "type": "bytes"
        }
      ],
      "name": "ContenthashChanged",
      "type": "event"
    },
    {
      "anonymous": false,
      "inputs": [
        {
          "indexed": true,
          "internalType": "bytes32",
          "name": "node",
          "type": "bytes32"
        },
        {
          "indexed": false,
          "internalType": "bytes",
          "name": "name",
          "type": "bytes"
        },
        {
          "indexed": false,
          "internalType": "uint16",
          "name": "resource",
          "type": "uint16"
        },
        {
          "indexed": false,
          "internalType": "bytes",
          "name": "record",
          "type": "bytes"
        }
      ],
      "name": "DNSRecordChanged",
      "type": "event"
    },
    {
      "anonymous": false,
      "inputs": [
        {
          "indexed": true,
          "internalType": "bytes32",
          "name": "node",
          "type": "bytes32"
        },
        {
          "indexed": false,
          "internalType": "bytes",
          "name": "name",
          "type": "bytes"
        },
        {
          "indexed": false,
          "internalType": "uint16",
          "name": "resource",
          "type": "uint16"
        }
      ],
      "name": "DNSRecordDeleted",
      "type": "event"
    },
    {
      "anonymous": false,
      "inputs": [
        {
          "indexed": true,
          "internalType": "bytes32",
          "name": "node",
          "type": "bytes32"
        }
      ],
      "name": "DNSZoneCleared",
      "type": "event"
    },
    {
      "anonymous": false,
      "inputs": [
        {
          "indexed": true,
          "internalType": "bytes32",
          "name": "node",
          "type": "bytes32"
        },
        {
          "indexed": false,
          "internalType": "bytes",
          "name": "lastzonehash",
          "type": "bytes"
        },
        {
          "indexed": false,
          "internalType": "bytes",
          "name": "zonehash",
          "type": "bytes"
        }
      ],
      "name": "DNSZonehashChanged",
      "type": "event"
    },
    {
      "anonymous": false,
      "inputs": [
        {
          "indexed": true,
          "internalType": "bytes32",
          "name": "node",
          "type": "bytes32"
        },
        {
          "indexed": true,
          "internalType": "bytes4",
          "name": "interfaceID",
          "type": "bytes4"
        },
        {
          "indexed": false,
          "internalType": "address",
          "name": "implementer",
          "type": "address"
        }
      ],
      "name": "InterfaceChanged",
      "type": "event"
    },
    {
      "anonymous": false,
      "inputs": [
        {
          "indexed": true,
          "internalType": "bytes32",
          "name": "node",
          "type": "bytes32"
        },
        {
          "indexed": false,
          "internalType": "string",
          "name": "name",
          "type": "string"
        }
      ],
      "name": "NameChanged",
      "type": "event"
    },
    {
      "anonymous": false,
      "inputs": [
        {
          "indexed": true,
          "internalType": "bytes32",
          "name": "node",
          "type": "bytes32"
        },
        {
          "indexed": false,
          "internalType": "bytes32",
          "name": "x",
          "type": "bytes32"
        },
        {
          "indexed": false,
          "internalType": "bytes32",
          "name": "y",
          "type": "bytes32"
        }
      ],
      "name": "PubkeyChanged",
      "type": "event"
    },
    {
      "anonymous": false,
      "inputs": [
        {
          "indexed": true,
          "internalType": "bytes32",
          "name": "node",
          "type": "bytes32"
        },
        {
          "indexed": true,
          "internalType": "string",
          "name": "indexedKey",
          "type": "string"
        },
        {
          "indexed": false,
          "internalType": "string",
          "name": "key",
          "type": "string"
        }
      ],
      "name": "TextChanged",
      "type": "event"
    },
    {
      "inputs": [
        {
          "internalType": "bytes32",
          "name": "node",
          "type": "bytes32"
        },
        {
          "internalType": "uint256",
          "name": "contentTypes",
          "type": "uint256"
        }
      ],
      "name": "ABI",
      "outputs": [
        {
          "internalType": "uint256",
          "name": "",
          "type": "uint256"
        },
        {
          "internalType": "bytes",
          "name": "",
          "type": "bytes"
        }
      ],
      "stateMutability": "view",
      "type": "function"
    },
    {
      "inputs": [
        {
          "internalType": "bytes32",
          "name": "node",
          "type": "bytes32"
        }
      ],
      "name": "addr",
      "outputs": [
        {
          "internalType": "address payable",
          "name": "",
          "type": "address"
        }
      ],
      "stateMutability": "view",
      "type": "function"
    },
    {
      "inputs": [
        {
          "internalType": "bytes32",
          "name": "node",
          "type": "bytes32"
        },
        {
          "internalType": "uint256",
          "name": "coinType",
          "type": "uint256"
        }
      ],
      "name": "addr",
      "outputs": [
        {
          "internalType": "bytes",
          "name": "",
          "type": "bytes"
        }
      ],
      "stateMutability": "view",
      "type": "function"
    },
    {
      "inputs": [
        {
          "internalType": "bytes32",
          "name": "node",
          "type": "bytes32"
        }
      ],
      "name": "clearDNSZone",
      "outputs": [],
      "stateMutability": "nonpayable",
      "type": "function"
    },
    {
      "inputs": [
        {
          "internalType": "bytes32",
          "name": "node",
          "type": "bytes32"
        }
      ],
      "name": "contenthash",
      "outputs": [
        {
          "internalType": "bytes",
          "name": "",
          "type": "bytes"
        }
      ],
      "stateMutability": "view",
      "type": "function"
    },
    {
      "inputs": [
        {
          "internalType": "bytes32",
          "name": "node",
          "type": "bytes32"
        },
        {
          "internalType": "bytes32",
          "name": "name",
          "type": "bytes32"
        },
        {
          "internalType": "uint16",
          "name": "resource",
          "type": "uint16"
        }
      ],
      "name": "dnsRecord",
      "outputs": [
        {
          "internalType": "bytes",
          "name": "",
          "type": "bytes"
        }
      ],
      "stateMutability": "view",
      "type": "function"
    },
    {
      "inputs": [
        {
          "internalType": "bytes32",
          "name": "node",
          "type": "bytes32"
        },
        {
          "internalType": "bytes32",
          "name": "name",
          "type": "bytes32"
        }
      ],
      "name": "hasDNSRecords",
      "outputs": [
        {
          "internalType": "bool",
          "name": "",
          "type": "bool"
        }
      ],
      "stateMutability": "view",
      "type": "function"
    },
    {
      "inputs": [
        {
          "internalType": "bytes32",
          "name": "node",
          "type": "bytes32"
        },
        {
          "internalType": "bytes4",
          "name": "interfaceID",
          "type": "bytes4"
        }
      ],
      "name": "interfaceImplementer",
      "outputs": [
        {
          "internalType": "address",
          "name": "",
          "type": "address"
        }
      ],
      "stateMutability": "view",
      "type": "function"
    },
    {
      "inputs": [
        {
          "internalType": "address",
          "name": "account",
          "type": "address"
        },
        {
          "internalType": "address",
          "name": "operator",
          "type": "address"
        }
      ],
      "name": "isApprovedForAll",
      "outputs": [
        {
          "internalType": "bool",
          "name": "",
          "type": "bool"
        }
      ],
      "stateMutability": "view",
      "type": "function"
    },
    {
      "inputs": [
        {
          "internalType": "bytes[]",
          "name": "data",
          "type": "bytes[]"
        }
      ],
      "name": "multicall",
      "outputs": [
        {
          "internalType": "bytes[]",
          "name": "results",
          "type": "bytes[]"
        }
      ],
      "stateMutability": "nonpayable",
      "type": "function"
    },
    {
      "inputs": [
        {
          "internalType": "bytes32",
          "name": "node",
          "type": "bytes32"
        }
      ],
      "name": "name",
      "outputs": [
        {
          "internalType": "string",
          "name": "",
          "type": "string"
        }
      ],
      "stateMutability": "view",
      "type": "function"
    },
    {
      "inputs": [
        {
          "internalType": "bytes32",
          "name": "node",
          "type": "bytes32"
        }
      ],
      "name": "pubkey",
      "outputs": [
        {
          "internalType": "bytes32",
          "name": "x",
          "type": "bytes32"
        },
        {
          "internalType": "bytes32",
          "name": "y",
          "type": "bytes32"
        }
      ],
      "stateMutability": "view",
      "type": "function"
    },
    {
      "inputs": [
        {
          "internalType": "bytes",
          "name": "name",
          "type": "bytes"
        },
        {
          "internalType": "bytes",
          "name": "data",
          "type": "bytes"
        }
      ],
      "name": "resolve",
      "outputs": [
        {
          "internalType": "bytes",
          "name": "",
          "type": "bytes"
        }
      ],
      "stateMutability": "view",
      "type": "function"
    },
    {
      "inputs": [
        {
          "internalType": "bytes32",
          "name": "node",
          "type": "bytes32"
        },
        {
          "internalType": "uint256",
          "name": "contentType",
          "type": "uint256"
        },
        {
          "internalType": "bytes",
          "name": "data",
          "type": "bytes"
        }
      ],
      "name": "setABI",
      "outputs": [],
      "stateMutability": "nonpayable",
      "type": "function"
    },
    {
      "inputs": [
        {
          "internalType": "bytes32",
          "name": "node",
          "type": "bytes32"
        },
        {
          "internalType": "uint256",
          "name": "coinType",
          "type": "uint256"
        },
        {
          "internalType": "bytes",
          "name": "a",
          "type": "bytes"
        }
      ],
      "name": "setAddr",
      "outputs": [],
      "stateMutability": "nonpayable",
      "type": "function"
    },
    {
      "inputs": [
        {
          "internalType": "bytes32",
          "name": "node",
          "type": "bytes32"
        },
        {
          "internalType": "address",
          "name": "a",
          "type": "address"
        }
      ],
      "name": "setAddr",
      "outputs": [],
      "stateMutability": "nonpayable",
      "type": "function"
    },
    {
      "inputs": [
        {
          "internalType": "address",
          "name": "operator",
          "type": "address"
        },
        {
          "internalType": "bool",
          "name": "approved",
          "type": "bool"
        }
      ],
      "name": "setApprovalForAll",
      "outputs": [],
      "stateMutability": "nonpayable",
      "type": "function"
    },
    {
      "inputs": [
        {
          "internalType": "bytes32",
          "name": "node",
          "type": "bytes32"
        },
        {
          "internalType": "bytes",
          "name": "hash",
          "type": "bytes"
        }
      ],
      "name": "setContenthash",
      "outputs": [],
      "stateMutability": "nonpayable",
      "type": "function"
    },
    {
      "inputs": [
        {
          "internalType": "bytes32",
          "name": "node",
          "type": "bytes32"
        },
        {
          "internalType": "bytes",
          "name": "data",
          "type": "bytes"
        }
      ],
      "name": "setDNSRecords",
      "outputs": [],
      "stateMutability": "nonpayable",
      "type": "function"
    },
    {
      "inputs": [
        {
          "internalType": "bytes32",
          "name": "node",
          "type": "bytes32"
        },
        {
          "internalType": "bytes4",
          "name": "interfaceID",
          "type": "bytes4"
        },
        {
          "internalType": "address",
          "name": "implementer",
          "type": "address"
        }
      ],
      "name": "setInterface",
      "outputs": [],
      "stateMutability": "nonpayable",
      "type": "function"
    },
    {
      "inputs": [
        {
          "internalType": "bytes32",
          "name": "node",
          "type": "bytes32"
        },
        {
          "internalType": "string",
          "name": "newName",
          "type": "string"
        }
      ],
      "name": "setName",
      "outputs": [],
      "stateMutability": "nonpayable",
      "type": "function"
    },
    {
      "inputs": [
        {
          "internalType": "bytes32",
          "name": "node",
          "type": "bytes32"
        },
        {
          "internalType": "bytes32",
          "name": "x",
          "type": "bytes32"
        },
        {
          "internalType": "bytes32",
          "name": "y",
          "type": "bytes32"
        }
      ],
      "name": "setPubkey",
      "outputs": [],
      "stateMutability": "nonpayable",
      "type": "function"
    },
    {
      "inputs": [
        {
          "internalType": "bytes32",
          "name": "node",
          "type": "bytes32"
        },
        {
          "internalType": "string",
          "name": "key",
          "type": "string"
        },
        {
          "internalType": "string",
          "name": "value",
          "type": "string"
        }
      ],
      "name": "setText",
      "outputs": [],
      "stateMutability": "nonpayable",
      "type": "function"
    },
    {
      "inputs": [
        {
          "internalType": "bytes32",
          "name": "node",
          "type": "bytes32"
        },
        {
          "internalType": "bytes",
          "name": "hash",
          "type": "bytes"
        }
      ],
      "name": "setZonehash",
      "outputs": [],
      "stateMutability": "nonpayable",
      "type": "function"
    },
    {
      "inputs": [
        {
          "internalType": "bytes4",
          "name": "interfaceID",
          "type": "bytes4"
        }
      ],
      "name": "supportsInterface",
      "outputs": [
        {
          "internalType": "bool",
          "name": "",
          "type": "bool"
        }
      ],
      "stateMutability": "view",
      "type": "function"
    },
    {
      "inputs": [
        {
          "internalType": "bytes32",
          "name": "node",
          "type": "bytes32"
        },
        {
          "internalType": "string",
          "name": "key",
          "type": "string"
        }
      ],
      "name": "text",
      "outputs": [
        {
          "internalType": "string",
          "name": "",
          "type": "string"
        }
      ],
      "stateMutability": "view",
      "type": "function"
    },
    {
      "inputs": [
        {
          "internalType": "bytes32",
          "name": "node",
          "type": "bytes32"
        }
      ],
      "name": "zonehash",
      "outputs": [
        {
          "internalType": "bytes",
          "name": "",
          "type": "bytes"
        }
      ],
      "stateMutability": "view",
      "type": "function"
    }
  ],
  "bytecode": "0x60a06040523480156200001157600080fd5b5060405162002cca38038062002cca833981016040819052620000349162000046565b6001600160a01b031660805262000078565b6000602082840312156200005957600080fd5b81516001600160a01b03811681146200007157600080fd5b9392505050565b608051612c396200009160003960005050612c396000f3fe608060405234801561001057600080fd5b50600436106101b95760003560e01c806377372213116100f9578063bc1c58d111610097578063d5fa2b0011610071578063d5fa2b001461042e578063e59d895d14610441578063e985e9c514610454578063f1cb7e061461049d57600080fd5b8063bc1c58d1146103cb578063c8690233146103de578063ce3decdc1461041b57600080fd5b8063a22cb465116100d3578063a22cb46514610372578063a8fa568214610385578063ac9650d814610398578063ad5780af146103b857600080fd5b806377372213146103395780638b95dd711461034c5780639061b9231461035f57600080fd5b8063304e6ade1161016657806359d1d43c1161014057806359d1d43c146102e05780635c98042b14610300578063623195b014610313578063691f34311461032657600080fd5b8063304e6ade1461027a5780633b3b57de1461028d5780634cbf6ba4146102a057600080fd5b8063124a319c11610197578063124a319c1461020e5780632203ab561461024657806329cd62ea1461026757600080fd5b806301ffc9a7146101be5780630af179d7146101e657806310f13a8c146101fb575b600080fd5b6101d16101cc366004612296565b6104b0565b60405190151581526020015b60405180910390f35b6101f96101f43660046122f3565b61050c565b005b6101f961020936600461233f565b6106e8565b61022161021c3660046123b9565b610783565b60405173ffffffffffffffffffffffffffffffffffffffff90911681526020016101dd565b6102596102543660046123e5565b610b00565b6040516101dd929190612481565b6101f961027536600461249a565b610c1b565b6101f96102883660046122f3565b610c89565b61022161029b3660046124c6565b610cd6565b6101d16102ae3660046123e5565b600091825260066020908152604080842060048352818520548552825280842092845291905290205461ffff16151590565b6102f36102ee3660046122f3565b610d08565b6040516101dd91906124df565b6102f361030e3660046124c6565b610dcd565b6101f96103213660046124f2565b610e6f565b6102f36103343660046124c6565b610ede565b6101f96103473660046122f3565b610efb565b6101f961035a36600461261f565b610f48565b6102f361036d36600461266f565b61100d565b6101f96103803660046126f2565b611049565b6102f361039336600461272e565b61118a565b6103ab6103a636600461276e565b6111cd565b6040516101dd91906127e3565b6101f96103c63660046124c6565b6112e8565b6102f36103d93660046124c6565b611337565b6104066103ec3660046124c6565b600090815260096020526040902080546001909101549091565b604080519283526020830191909152016101dd565b6101f96104293660046122f3565b611354565b6101f961043c366004612863565b61144e565b6101f961044f366004612886565b611463565b6101d16104623660046128c2565b73ffffffffffffffffffffffffffffffffffffffff9182166000908152600b6020908152604080832093909416825291909152205460ff1690565b6102f36104ab3660046123e5565b61151b565b60007fffffffff0000000000000000000000000000000000000000000000000000000082167f9061b9230000000000000000000000000000000000000000000000000000000014806105065750610506826115c9565b92915050565b8260008060608060008061055a60008a8a8080601f016020809104026020016040519081016040528093929190818152602001838380828437600092019190915250929392505061161f9050565b90505b80515160208201511015610683578561ffff166000036105c2578060400151955061058781611680565b93508360405160200161059a91906128ec565b6040516020818303038152906040528051906020012091506105bb816116a1565b9250610675565b60006105cd82611680565b9050816040015161ffff168761ffff161415806105f157506105ef85826116bd565b155b156106735761064c8b86898d8d8080601f016020809104026020016040519081016040528093929190818152602001838380828437600092019190915250505060208801518c9150610644908290612937565b8a51156116db565b816040015196508160200151955080945084805190602001209250610670826116a1565b93505b505b61067e8161191e565b61055d565b508251156106dd576106dd8984878b8b8080601f0160208091040260200160405190810160405280939291908181526020018383808284376000920191909152508b92506106d591508290508e612937565b8851156116db565b505050505050505050565b848282600a6000898152602001908152602001600020878760405161070e92919061294e565b9081526040519081900360200190206107289290916120f9565b50848460405161073992919061294e565b6040518091039020867fd8c9334b1a9c2f9da342a0a2b32629c1a229b6445dad78947f674b44444a755087876040516107739291906129a7565b60405180910390a3505050505050565b60008281526007602090815260408083207fffffffff000000000000000000000000000000000000000000000000000000008516845290915281205473ffffffffffffffffffffffffffffffffffffffff1680156107e2579050610506565b60006107ed85610cd6565b905073ffffffffffffffffffffffffffffffffffffffff811661081557600092505050610506565b6040517f01ffc9a7000000000000000000000000000000000000000000000000000000006024820152600090819073ffffffffffffffffffffffffffffffffffffffff841690604401604080517fffffffffffffffffffffffffffffffffffffffffffffffffffffffffffffffe08184030181529181526020820180517bffffffffffffffffffffffffffffffffffffffffffffffffffffffff167f01ffc9a700000000000000000000000000000000000000000000000000000000179052516108df91906128ec565b600060405180830381855afa9150503d806000811461091a576040519150601f19603f3d011682016040523d82523d6000602084013e61091f565b606091505b5091509150811580610932575060208151105b80610974575080601f8151811061094b5761094b6129bb565b01602001517fff0000000000000000000000000000000000000000000000000000000000000016155b15610986576000945050505050610506565b6040517fffffffff000000000000000000000000000000000000000000000000000000008716602482015273ffffffffffffffffffffffffffffffffffffffff841690604401604080517fffffffffffffffffffffffffffffffffffffffffffffffffffffffffffffffe08184030181529181526020820180517bffffffffffffffffffffffffffffffffffffffffffffffffffffffff167f01ffc9a70000000000000000000000000000000000000000000000000000000017905251610a4d91906128ec565b600060405180830381855afa9150503d8060008114610a88576040519150601f19603f3d011682016040523d82523d6000602084013e610a8d565b606091505b509092509050811580610aa1575060208151105b80610ae3575080601f81518110610aba57610aba6129bb565b01602001517fff0000000000000000000000000000000000000000000000000000000000000016155b15610af5576000945050505050610506565b509095945050505050565b600082815260208190526040812060609060015b848111610bfb5780851615801590610b44575060008181526020839052604081208054610b40906129ea565b9050115b15610bf35780826000838152602001908152602001600020808054610b68906129ea565b80601f0160208091040260200160405190810160405280929190818152602001828054610b94906129ea565b8015610be15780601f10610bb657610100808354040283529160200191610be1565b820191906000526020600020905b815481529060010190602001808311610bc457829003601f168201915b50505050509050935093505050610c14565b60011b610b14565b5060006040518060200160405280600081525092509250505b9250929050565b8260408051808201825284815260208082018581526000888152600983528490209251835551600190920191909155815185815290810184905285917f1d6f5e03d3f63eb58751986629a5439baee5079ff04f345becb66e23eb154e4691015b60405180910390a250505050565b826000848152600260205260409020610ca39084846120f9565b50837fe379c1624ed7e714cc0937528a32359d69d5281337765313dba4e081b72d75788484604051610c7b9291906129a7565b600080610ce483603c61151b565b90508051600003610cf85750600092915050565b610d0181611a06565b9392505050565b6060600a60008581526020019081526020016000208383604051610d2d92919061294e565b90815260200160405180910390208054610d46906129ea565b80601f0160208091040260200160405190810160405280929190818152602001828054610d72906129ea565b8015610dbf5780601f10610d9457610100808354040283529160200191610dbf565b820191906000526020600020905b815481529060010190602001808311610da257829003601f168201915b505050505090509392505050565b6000818152600360205260409020805460609190610dea906129ea565b80601f0160208091040260200160405190810160405280929190818152602001828054610e16906129ea565b8015610e635780601f10610e3857610100808354040283529160200191610e63565b820191906000526020600020905b815481529060010190602001808311610e4657829003601f168201915b50505050509050919050565b8383610e7c600182612937565b1615610e8757600080fd5b6000858152602081815260408083208784529091529020610ea99084846120f9565b50604051849086907faa121bbeef5f32f5961a2a28966e769023910fc9479059ee3495d4c1a696efe390600090a35050505050565b6000818152600860205260409020805460609190610dea906129ea565b826000848152600860205260409020610f159084846120f9565b50837fb7d29e911041e8d9b843369e890bcb72c9388692ba48b65ac54e7214c4c348f78484604051610c7b9291906129a7565b82837f65412581168e88a1e60c6459d7f44ae83ad0832e670826c05a4e2476b57af7528484604051610f7b929190612481565b60405180910390a2603c8303610fdf57837f52d7d861f09ab3d26239d492e8968629f95e9e318cf0b73bfddc441522a15fd2610fb684611a06565b60405173ffffffffffffffffffffffffffffffffffffffff909116815260200160405180910390a25b6000848152600160209081526040808320868452825290912083516110069285019061219b565b5050505050565b6060600061101b3084611a2e565b90503d81156110385761102f600082611ae7565b92505050610d01565b611040611b3c565b50509392505050565b73ffffffffffffffffffffffffffffffffffffffff821633036110f3576040517f08c379a000000000000000000000000000000000000000000000000000000000815260206004820152602960248201527f455243313135353a2073657474696e6720617070726f76616c2073746174757360448201527f20666f722073656c66000000000000000000000000000000000000000000000060648201526084015b60405180910390fd5b336000818152600b6020908152604080832073ffffffffffffffffffffffffffffffffffffffff87168085529083529281902080547fffffffffffffffffffffffffffffffffffffffffffffffffffffffffffffff001686151590811790915590519081529192917f17307eab39ab6107e8899845ad3d59bd9653f200f220920489ca2b5937696c31910160405180910390a35050565b6000838152600560209081526040808320600483528184205484528252808320858452825280832061ffff851684529091529020805460609190610d46906129ea565b60608167ffffffffffffffff8111156111e8576111e8612545565b60405190808252806020026020018201604052801561121b57816020015b60608152602001906001900390816112065790505b50905060005b828110156112e1576000803086868581811061123f5761123f6129bb565b90506020028101906112519190612a3d565b60405161125f92919061294e565b600060405180830381855af49150503d806000811461129a576040519150601f19603f3d011682016040523d82523d6000602084013e61129f565b606091505b5091509150816112ae57600080fd5b808484815181106112c1576112c16129bb565b6020026020010181905250505080806112d990612aa2565b915050611221565b5092915050565b80600082815260046020526040812080549161130383612aa2565b909155505060405182907fb757169b8492ca2f1c6619d9d76ce22803035c3b1d5f6930dffe7b127c1a198390600090a25050565b6000818152600260205260409020805460609190610dea906129ea565b826000848152600360205260408120805461136e906129ea565b80601f016020809104026020016040519081016040528092919081815260200182805461139a906129ea565b80156113e75780601f106113bc576101008083540402835291602001916113e7565b820191906000526020600020905b8154815290600101906020018083116113ca57829003601f168201915b505050600088815260036020526040902092935061140a929150869050856120f9565b50847f8f15ed4b723ef428f250961da8315675b507046737e19319fc1a4d81bfe87f8582868660405161143f93929190612ada565b60405180910390a25050505050565b8161145e83603c61035a85611b46565b505050565b8260008481526007602090815260408083207fffffffff0000000000000000000000000000000000000000000000000000000087168085529083529281902080547fffffffffffffffffffffffff00000000000000000000000000000000000000001673ffffffffffffffffffffffffffffffffffffffff8716908117909155905190815286917f7c69f06bea0bdef565b709e93a147836b0063ba2dd89f02d0b7e8d931e6a6daa910160405180910390a350505050565b60008281526001602090815260408083208484529091529020805460609190611543906129ea565b80601f016020809104026020016040519081016040528092919081815260200182805461156f906129ea565b80156115bc5780601f10611591576101008083540402835291602001916115bc565b820191906000526020600020905b81548152906001019060200180831161159f57829003601f168201915b5050505050905092915050565b60007fffffffff0000000000000000000000000000000000000000000000000000000082167f59d1d43c000000000000000000000000000000000000000000000000000000001480610506575061050682611b7f565b61166d6040518060e001604052806060815260200160008152602001600061ffff168152602001600061ffff168152602001600063ffffffff16815260200160008152602001600081525090565b82815260c081018290526105068161191e565b60208101518151606091610506916116989082611bd5565b84519190611c37565b60a081015160c082015160609161050691611698908290612937565b600081518351148015610d015750610d018360008460008751611cae565b60008781526004602090815260408220548851918901919091209091611702878787611c37565b9050831561180b5760008a81526005602090815260408083208684528252808320858452825280832061ffff8c16845290915290208054611742906129ea565b1590506117965760008a815260066020908152604080832086845282528083208584529091528120805461ffff169161177a83612b0a565b91906101000a81548161ffff021916908361ffff160217905550505b60008a81526005602090815260408083208684528252808320858452825280832061ffff8c16845290915281206117cc9161220f565b897f03528ed0c2a3ebc993b12ce3c16bb382f9c7d88ef7d8a1bf290eaf35955a12078a8a6040516117fe929190612b46565b60405180910390a2611912565b60008a81526005602090815260408083208684528252808320858452825280832061ffff8c16845290915290208054611843906129ea565b90506000036118995760008a815260066020908152604080832086845282528083208584529091528120805461ffff169161187d83612b6c565b91906101000a81548161ffff021916908361ffff160217905550505b60008a81526005602090815260408083208684528252808320858452825280832061ffff8c168452825290912082516118d49284019061219b565b50897f52a608b3303a48862d07a73d82fa221318c0027fbbcfb1b2329bface3f19ff2b8a8a8460405161190993929190612b8d565b60405180910390a25b50505050505050505050565b60c081015160208201819052815151116119355750565b600061194982600001518360200151611bd5565b82602001516119589190612bbc565b82519091506119679082611cd1565b61ffff16604083015261197b600282612bbc565b825190915061198a9082611cd1565b61ffff16606083015261199e600282612bbc565b82519091506119ad9082611cf9565b63ffffffff1660808301526119c3600482612bbc565b82519091506000906119d59083611cd1565b61ffff1690506119e6600283612bbc565b60a0840181905291506119f98183612bbc565b60c0909301929092525050565b60008151601414611a1657600080fd5b50602001516c01000000000000000000000000900490565b600073ffffffffffffffffffffffffffffffffffffffff83163b611ad4576040517f08c379a000000000000000000000000000000000000000000000000000000000815260206004820152602e60248201527f4c6f774c6576656c43616c6c5574696c733a207374617469632063616c6c207460448201527f6f206e6f6e2d636f6e747261637400000000000000000000000000000000000060648201526084016110ea565b600080835160208501865afa9392505050565b60608167ffffffffffffffff811115611b0257611b02612545565b6040519080825280601f01601f191660200182016040528015611b2c576020820181803683370190505b5090508183602083013e92915050565b3d6000803e3d6000fd5b6040805160148082528183019092526060916020820181803683375050506c010000000000000000000000009290920260208301525090565b60007fffffffff0000000000000000000000000000000000000000000000000000000082167fc8690233000000000000000000000000000000000000000000000000000000001480610506575061050682611d23565b6000815b83518110611be957611be9612bd4565b6000611bf58583611d79565b60ff169050611c05816001612bbc565b611c0f9083612bbc565b915080600003611c1f5750611c25565b50611bd9565b611c2f8382612937565b949350505050565b8251606090611c468385612bbc565b1115611c5157600080fd5b60008267ffffffffffffffff811115611c6c57611c6c612545565b6040519080825280601f01601f191660200182016040528015611c96576020820181803683370190505b50905060208082019086860101610af5828287611d9d565b6000611cbb848484611e11565b611cc6878785611e11565b149695505050505050565b8151600090611ce1836002612bbc565b1115611cec57600080fd5b50016002015161ffff1690565b8151600090611d09836004612bbc565b1115611d1457600080fd5b50016004015163ffffffff1690565b60007fffffffff0000000000000000000000000000000000000000000000000000000082167f691f3431000000000000000000000000000000000000000000000000000000001480610506575061050682611e35565b6000828281518110611d8d57611d8d6129bb565b016020015160f81c905092915050565b60208110611dd55781518352611db4602084612bbc565b9250611dc1602083612bbc565b9150611dce602082612937565b9050611d9d565b905182516020929092036101000a7fffffffffffffffffffffffffffffffffffffffffffffffffffffffffffffffff0180199091169116179052565b8251600090611e208385612bbc565b1115611e2b57600080fd5b5091016020012090565b60007fffffffff0000000000000000000000000000000000000000000000000000000082167f124a319c00000000000000000000000000000000000000000000000000000000148061050657506105068260007fffffffff0000000000000000000000000000000000000000000000000000000082167fa8fa5682000000000000000000000000000000000000000000000000000000001480611f1957507fffffffff0000000000000000000000000000000000000000000000000000000082167f5c98042b00000000000000000000000000000000000000000000000000000000145b8061050657506105068260007fffffffff0000000000000000000000000000000000000000000000000000000082167fbc1c58d100000000000000000000000000000000000000000000000000000000148061050657506105068260007fffffffff0000000000000000000000000000000000000000000000000000000082167f3b3b57de00000000000000000000000000000000000000000000000000000000148061200757507fffffffff0000000000000000000000000000000000000000000000000000000082167ff1cb7e0600000000000000000000000000000000000000000000000000000000145b8061050657506105068260007fffffffff0000000000000000000000000000000000000000000000000000000082167f2203ab5600000000000000000000000000000000000000000000000000000000148061050657506105068260007fffffffff0000000000000000000000000000000000000000000000000000000082167fac9650d800000000000000000000000000000000000000000000000000000000148061050657507f01ffc9a7000000000000000000000000000000000000000000000000000000007fffffffff00000000000000000000000000000000000000000000000000000000831614610506565b828054612105906129ea565b90600052602060002090601f016020900481019282612127576000855561218b565b82601f1061215e578280017fffffffffffffffffffffffffffffffffffffffffffffffffffffffffffffff0082351617855561218b565b8280016001018555821561218b579182015b8281111561218b578235825591602001919060010190612170565b5061219792915061224c565b5090565b8280546121a7906129ea565b90600052602060002090601f0160209004810192826121c9576000855561218b565b82601f106121e257805160ff191683800117855561218b565b8280016001018555821561218b579182015b8281111561218b5782518255916020019190600101906121f4565b50805461221b906129ea565b6000825580601f1061222b575050565b601f016020900490600052602060002090810190612249919061224c565b50565b5b80821115612197576000815560010161224d565b80357fffffffff000000000000000000000000000000000000000000000000000000008116811461229157600080fd5b919050565b6000602082840312156122a857600080fd5b610d0182612261565b60008083601f8401126122c357600080fd5b50813567ffffffffffffffff8111156122db57600080fd5b602083019150836020828501011115610c1457600080fd5b60008060006040848603121561230857600080fd5b83359250602084013567ffffffffffffffff81111561232657600080fd5b612332868287016122b1565b9497909650939450505050565b60008060008060006060868803121561235757600080fd5b85359450602086013567ffffffffffffffff8082111561237657600080fd5b61238289838a016122b1565b9096509450604088013591508082111561239b57600080fd5b506123a8888289016122b1565b969995985093965092949392505050565b600080604083850312156123cc57600080fd5b823591506123dc60208401612261565b90509250929050565b600080604083850312156123f857600080fd5b50508035926020909101359150565b60005b8381101561242257818101518382015260200161240a565b83811115612431576000848401525b50505050565b6000815180845261244f816020860160208601612407565b601f017fffffffffffffffffffffffffffffffffffffffffffffffffffffffffffffffe0169290920160200192915050565b828152604060208201526000611c2f6040830184612437565b6000806000606084860312156124af57600080fd5b505081359360208301359350604090920135919050565b6000602082840312156124d857600080fd5b5035919050565b602081526000610d016020830184612437565b6000806000806060858703121561250857600080fd5b8435935060208501359250604085013567ffffffffffffffff81111561252d57600080fd5b612539878288016122b1565b95989497509550505050565b7f4e487b7100000000000000000000000000000000000000000000000000000000600052604160045260246000fd5b600082601f83011261258557600080fd5b813567ffffffffffffffff808211156125a0576125a0612545565b604051601f83017fffffffffffffffffffffffffffffffffffffffffffffffffffffffffffffffe0908116603f011681019082821181831017156125e6576125e6612545565b816040528381528660208588010111156125ff57600080fd5b836020870160208301376000602085830101528094505050505092915050565b60008060006060848603121561263457600080fd5b8335925060208401359150604084013567ffffffffffffffff81111561265957600080fd5b61266586828701612574565b9150509250925092565b60008060006040848603121561268457600080fd5b833567ffffffffffffffff8082111561269c57600080fd5b6126a8878388016122b1565b909550935060208601359150808211156126c157600080fd5b5061266586828701612574565b803573ffffffffffffffffffffffffffffffffffffffff8116811461229157600080fd5b6000806040838503121561270557600080fd5b61270e836126ce565b91506020830135801515811461272357600080fd5b809150509250929050565b60008060006060848603121561274357600080fd5b8335925060208401359150604084013561ffff8116811461276357600080fd5b809150509250925092565b6000806020838503121561278157600080fd5b823567ffffffffffffffff8082111561279957600080fd5b818501915085601f8301126127ad57600080fd5b8135818111156127bc57600080fd5b8660208260051b85010111156127d157600080fd5b60209290920196919550909350505050565b6000602080830181845280855180835260408601915060408160051b870101925083870160005b82811015612856577fffffffffffffffffffffffffffffffffffffffffffffffffffffffffffffffc0888603018452612844858351612437565b9450928501929085019060010161280a565b5092979650505050505050565b6000806040838503121561287657600080fd5b823591506123dc602084016126ce565b60008060006060848603121561289b57600080fd5b833592506128ab60208501612261565b91506128b9604085016126ce565b90509250925092565b600080604083850312156128d557600080fd5b6128de836126ce565b91506123dc602084016126ce565b600082516128fe818460208701612407565b9190910192915050565b7f4e487b7100000000000000000000000000000000000000000000000000000000600052601160045260246000fd5b60008282101561294957612949612908565b500390565b8183823760009101908152919050565b8183528181602085013750600060208284010152600060207fffffffffffffffffffffffffffffffffffffffffffffffffffffffffffffffe0601f840116840101905092915050565b602081526000611c2f60208301848661295e565b7f4e487b7100000000000000000000000000000000000000000000000000000000600052603260045260246000fd5b600181811c908216806129fe57607f821691505b602082108103612a37577f4e487b7100000000000000000000000000000000000000000000000000000000600052602260045260246000fd5b50919050565b60008083357fffffffffffffffffffffffffffffffffffffffffffffffffffffffffffffffe1843603018112612a7257600080fd5b83018035915067ffffffffffffffff821115612a8d57600080fd5b602001915036819003821315610c1457600080fd5b60007fffffffffffffffffffffffffffffffffffffffffffffffffffffffffffffffff8203612ad357612ad3612908565b5060010190565b604081526000612aed6040830186612437565b8281036020840152612b0081858761295e565b9695505050505050565b600061ffff821680612b1e57612b1e612908565b7fffffffffffffffffffffffffffffffffffffffffffffffffffffffffffffffff0192915050565b604081526000612b596040830185612437565b905061ffff831660208301529392505050565b600061ffff808316818103612b8357612b83612908565b6001019392505050565b606081526000612ba06060830186612437565b61ffff851660208401528281036040840152612b008185612437565b60008219821115612bcf57612bcf612908565b500190565b7f4e487b7100000000000000000000000000000000000000000000000000000000600052600160045260246000fdfea26469706673582212208a0f640c89219868fc9e354a359232f727d4421cc6d3982f48b1ad73f356b9ac64736f6c634300080d0033",
  "linkReferences": {},
  "deployedLinkReferences": {}
}